{
  "contractName": "Auction",
  "abi": [
    {
      "inputs": [
        {
          "internalType": "address payable",
          "name": "_winner",
          "type": "address"
        },
        {
          "internalType": "uint256",
          "name": "_highestBid",
          "type": "uint256"
        },
        {
          "internalType": "bool",
          "name": "_hasPaid",
          "type": "bool"
        },
        {
          "internalType": "uint256",
          "name": "_start",
          "type": "uint256"
        },
        {
          "internalType": "uint256",
          "name": "hoursAfter",
          "type": "uint256"
        }
      ],
      "stateMutability": "nonpayable",
      "type": "constructor"
    },
    {
      "inputs": [],
      "name": "contractBalance",
      "outputs": [
        {
          "internalType": "uint256",
          "name": "",
          "type": "uint256"
        }
      ],
      "stateMutability": "view",
      "type": "function"
    },
    {
      "inputs": [],
      "name": "end",
      "outputs": [
        {
          "internalType": "uint256",
          "name": "",
          "type": "uint256"
        }
      ],
      "stateMutability": "view",
      "type": "function"
    },
    {
      "inputs": [],
      "name": "hasPaid",
      "outputs": [
        {
          "internalType": "bool",
          "name": "",
          "type": "bool"
        }
      ],
      "stateMutability": "view",
      "type": "function"
    },
    {
      "inputs": [],
      "name": "highestBid",
      "outputs": [
        {
          "internalType": "uint256",
          "name": "",
          "type": "uint256"
        }
      ],
      "stateMutability": "view",
      "type": "function"
    },
    {
      "inputs": [],
      "name": "owner",
      "outputs": [
        {
          "internalType": "address payable",
          "name": "",
          "type": "address"
        }
      ],
      "stateMutability": "view",
      "type": "function"
    },
    {
      "inputs": [],
      "name": "start",
      "outputs": [
        {
          "internalType": "uint256",
          "name": "",
          "type": "uint256"
        }
      ],
      "stateMutability": "view",
      "type": "function"
    },
    {
      "inputs": [],
      "name": "winner",
      "outputs": [
        {
          "internalType": "address payable",
          "name": "",
          "type": "address"
        }
      ],
      "stateMutability": "view",
      "type": "function"
    },
    {
      "inputs": [],
      "name": "withdraw",
      "outputs": [],
      "stateMutability": "nonpayable",
      "type": "function"
    },
    {
      "inputs": [
        {
          "internalType": "uint256",
          "name": "newBid",
          "type": "uint256"
        }
      ],
      "name": "bid",
      "outputs": [],
      "stateMutability": "nonpayable",
      "type": "function"
    },
    {
      "inputs": [],
      "name": "payIfWinner",
      "outputs": [],
      "stateMutability": "payable",
      "type": "function"
    },
    {
      "inputs": [],
      "name": "checkWinner",
      "outputs": [
        {
          "internalType": "address payable",
          "name": "",
          "type": "address"
        }
      ],
      "stateMutability": "view",
      "type": "function"
    }
  ],
  "bytecode": "0x608060405234801561001057600080fd5b50604051610698380380610698833981810160405260a081101561003357600080fd5b810190808051906020019092919080519060200190929190805190602001909291908051906020019092919080519060200190929190505050846000806101000a81548173ffffffffffffffffffffffffffffffffffffffff021916908373ffffffffffffffffffffffffffffffffffffffff16021790555033600160006101000a81548173ffffffffffffffffffffffffffffffffffffffff021916908373ffffffffffffffffffffffffffffffffffffffff16021790555060006002819055508360038190555082600460006101000a81548160ff02191690831515021790555081600581905550610e108102600554016006819055505050505050610558806101406000396000f3fe60806040526004361061009c5760003560e01c8063be9a655511610064578063be9a6555146101a0578063c810af81146101cb578063d2bb0d84146101f8578063d57bde7914610202578063dfbf53ae1461022d578063efbe1c1c1461026e5761009c565b80633ccfd60b146100a1578063454a2ab3146100b85780638b7afe2e146100f35780638da5cb5b1461011e578063ad38867e1461015f575b600080fd5b3480156100ad57600080fd5b506100b6610299565b005b3480156100c457600080fd5b506100f1600480360360208110156100db57600080fd5b8101908080359060200190929190505050610374565b005b3480156100ff57600080fd5b506101086103e6565b6040518082815260200191505060405180910390f35b34801561012a57600080fd5b506101336103ec565b604051808273ffffffffffffffffffffffffffffffffffffffff16815260200191505060405180910390f35b34801561016b57600080fd5b50610174610412565b604051808273ffffffffffffffffffffffffffffffffffffffff16815260200191505060405180910390f35b3480156101ac57600080fd5b506101b561043b565b6040518082815260200191505060405180910390f35b3480156101d757600080fd5b506101e0610441565b60405180821515815260200191505060405180910390f35b610200610454565b005b34801561020e57600080fd5b506102176104f2565b6040518082815260200191505060405180910390f35b34801561023957600080fd5b506102426104f8565b604051808273ffffffffffffffffffffffffffffffffffffffff16815260200191505060405180910390f35b34801561027a57600080fd5b5061028361051c565b6040518082815260200191505060405180910390f35b60065442116102a757600080fd5b3373ffffffffffffffffffffffffffffffffffffffff16600160009054906101000a900473ffffffffffffffffffffffffffffffffffffffff1673ffffffffffffffffffffffffffffffffffffffff161461030157600080fd5b60011515600460009054906101000a900460ff1615151461032157600080fd5b3373ffffffffffffffffffffffffffffffffffffffff166108fc6002549081150290604051600060405180830381858888f19350505050158015610369573d6000803e3d6000fd5b506000600281905550565b600554421015801561038857506006544211155b61039157600080fd5b6003548111156103e357336000806101000a81548173ffffffffffffffffffffffffffffffffffffffff021916908373ffffffffffffffffffffffffffffffffffffffff160217905550806003819055505b50565b60025481565b600160009054906101000a900473ffffffffffffffffffffffffffffffffffffffff1681565b60008060009054906101000a900473ffffffffffffffffffffffffffffffffffffffff16905090565b60055481565b600460009054906101000a900460ff1681565b600654421161046257600080fd5b3373ffffffffffffffffffffffffffffffffffffffff1660008054906101000a900473ffffffffffffffffffffffffffffffffffffffff1673ffffffffffffffffffffffffffffffffffffffff16146104ba57600080fd5b3460035414156104f057346002600082825401925050819055506001600460006101000a81548160ff0219169083151502179055505b565b60035481565b60008054906101000a900473ffffffffffffffffffffffffffffffffffffffff1681565b6006548156fea26469706673582212201a7e95cbc039d52508035ae459d4873fe7ae39518bed067c780c32c942e45afb64736f6c63430007040033",
  "immutableReferences": {},
  "source": "// SPDX-License-Identifier: GPL-3.0\npragma solidity ^0.7.4;\ncontract Auction {\n\tconstructor (address payable _winner, uint _highestBid, bool _hasPaid, uint _start, uint hoursAfter) {\n\t\twinner = _winner; \n\t\towner = msg.sender; \n\t\tcontractBalance = 0; \n\t\thighestBid = _highestBid; \n\t\thasPaid = _hasPaid; \n\t\tstart = _start; \n\t\tend = start + hoursAfter * 1 hours; \n\t}\n\taddress payable public winner; \n\taddress payable public owner; \n\tuint public contractBalance; \n\tuint public highestBid; \n\tbool public hasPaid; \n\tuint public start; \n\tuint public end; \n\tfunction withdraw() public {\n\t\trequire(block.timestamp > end); \n\t\trequire(owner == msg.sender); \n\t\trequire(hasPaid == true); \n\t\tpayable(msg.sender).transfer(contractBalance); \n\t\tcontractBalance = 0; \n\t}\n\tfunction bid(uint newBid) public {\n\t\trequire(block.timestamp >= start && block.timestamp <= end); \n\t\tif (newBid > highestBid) {\n\t\t\twinner = msg.sender; \n\t\t\thighestBid = newBid; \n\t\t}\n\t}\n\tfunction payIfWinner() payable public {\n\t\trequire(block.timestamp > end); \n\t\trequire(winner == msg.sender); \n\t\tif (highestBid == msg.value) {\n\t\t\tcontractBalance += msg.value; \n\t\t\thasPaid = true; \n\t\t}\n\t}\n\tfunction checkWinner() public view returns (address payable){\n\t\treturn winner;\n\t}\n}\n",
  "sourcePath": "/mnt/c/Users/kitch/Documents/Git Projects/Haskell-Smart-Contracts/EVM Testing/truffle/contracts/Auction.sol",
  "compiler": {
    "name": "solc",
    "version": "0.7.4+commit.3f05b770.Emscripten.clang"
  },
  "schemaVersion": "3.3.4",
  "updatedAt": "2021-03-19T12:11:16.660Z",
  "devdoc": {
    "kind": "dev",
    "methods": {},
    "version": 1
  },
  "userdoc": {
    "kind": "user",
    "methods": {},
    "version": 1
  }
}