{
  "contractName": "Ballot",
  "abi": [
    {
      "inputs": [
        {
          "internalType": "bytes32",
          "name": "proposalNames",
          "type": "bytes32"
        }
      ],
      "stateMutability": "nonpayable",
      "type": "constructor"
    },
    {
      "inputs": [],
      "name": "chairperson",
      "outputs": [
        {
          "internalType": "address",
          "name": "",
          "type": "address"
        }
      ],
      "stateMutability": "view",
      "type": "function"
    },
    {
      "inputs": [
        {
          "internalType": "uint256",
          "name": "",
          "type": "uint256"
        }
      ],
      "name": "proposals",
      "outputs": [
        {
          "internalType": "bytes32",
          "name": "name",
          "type": "bytes32"
        },
        {
          "internalType": "uint256",
          "name": "voteCount",
          "type": "uint256"
        }
      ],
      "stateMutability": "view",
      "type": "function"
    },
    {
      "inputs": [
        {
          "internalType": "address",
          "name": "",
          "type": "address"
        }
      ],
      "name": "voters",
      "outputs": [
        {
          "internalType": "uint256",
          "name": "weight",
          "type": "uint256"
        },
        {
          "internalType": "bool",
          "name": "voted",
          "type": "bool"
        },
        {
          "internalType": "address",
          "name": "delegate",
          "type": "address"
        },
        {
          "internalType": "uint256",
          "name": "vote",
          "type": "uint256"
        }
      ],
      "stateMutability": "view",
      "type": "function"
    },
    {
      "inputs": [
        {
          "internalType": "address",
          "name": "voter",
          "type": "address"
        }
      ],
      "name": "giveRightToVote",
      "outputs": [],
      "stateMutability": "nonpayable",
      "type": "function"
    },
    {
      "inputs": [
        {
          "internalType": "address",
          "name": "to",
          "type": "address"
        }
      ],
      "name": "delegate",
      "outputs": [],
      "stateMutability": "nonpayable",
      "type": "function"
    },
    {
      "inputs": [],
      "name": "vote",
      "outputs": [
        {
          "internalType": "uint256",
          "name": "proposal",
          "type": "uint256"
        }
      ],
      "stateMutability": "nonpayable",
      "type": "function"
    },
    {
      "inputs": [],
      "name": "winningProposal",
      "outputs": [
        {
          "internalType": "uint256",
          "name": "winningProposal_",
          "type": "uint256"
        }
      ],
      "stateMutability": "view",
      "type": "function"
    },
    {
      "inputs": [],
      "name": "winnerName",
      "outputs": [
        {
          "internalType": "bytes32",
          "name": "winnerName_",
          "type": "bytes32"
        }
      ],
      "stateMutability": "view",
      "type": "function"
    }
  ],
  "bytecode": "0x608060405234801561001057600080fd5b50604051610da2380380610da28339818101604052602081101561003357600080fd5b8101908080519060200190929190505050336000806101000a81548173ffffffffffffffffffffffffffffffffffffffff021916908373ffffffffffffffffffffffffffffffffffffffff16021790555060018060008060009054906101000a900473ffffffffffffffffffffffffffffffffffffffff1673ffffffffffffffffffffffffffffffffffffffff1673ffffffffffffffffffffffffffffffffffffffff168152602001908152602001600020600001819055506000600190505b602060ff16811015610194576002604051806040016040528084846020811061011857fe5b1a60f81b7effffffffffffffffffffffffffffffffffffffffffffffffffffffffffffff19168152602001600081525090806001815401808255809150506001900390600052602060002090600202016000909190919091506000820151816000015560208201518160010155505080806001019150506100f3565b5050610bfd806101a56000396000f3fe608060405234801561001057600080fd5b50600436106100885760003560e01c8063632a9a521161005b578063632a9a521461016c5780639e7b8d611461018a578063a3ec138d146101ce578063e2ba53f01461025357610088565b8063013cf08b1461008d5780632e4176cf146100d65780635c19a95c1461010a578063609ff1bd1461014e575b600080fd5b6100b9600480360360208110156100a357600080fd5b8101908080359060200190929190505050610271565b604051808381526020018281526020019250505060405180910390f35b6100de6102a5565b604051808273ffffffffffffffffffffffffffffffffffffffff16815260200191505060405180910390f35b61014c6004803603602081101561012057600080fd5b81019080803573ffffffffffffffffffffffffffffffffffffffff1690602001909291905050506102c9565b005b610156610703565b6040518082815260200191505060405180910390f35b610174610777565b6040518082815260200191505060405180910390f35b6101cc600480360360208110156101a057600080fd5b81019080803573ffffffffffffffffffffffffffffffffffffffff169060200190929190505050610915565b005b610210600480360360208110156101e457600080fd5b81019080803573ffffffffffffffffffffffffffffffffffffffff169060200190929190505050610b15565b6040518085815260200184151581526020018373ffffffffffffffffffffffffffffffffffffffff16815260200182815260200194505050505060405180910390f35b61025b610b72565b6040518082815260200191505060405180910390f35b6002818154811061028157600080fd5b90600052602060002090600202016000915090508060000154908060010154905082565b60008054906101000a900473ffffffffffffffffffffffffffffffffffffffff1681565b6000600160003373ffffffffffffffffffffffffffffffffffffffff1673ffffffffffffffffffffffffffffffffffffffff16815260200190815260200160002090508060010160009054906101000a900460ff1615610391576040517f08c379a00000000000000000000000000000000000000000000000000000000081526004018080602001828103825260128152602001807f596f7520616c726561647920766f7465642e000000000000000000000000000081525060200191505060405180910390fd5b3373ffffffffffffffffffffffffffffffffffffffff168273ffffffffffffffffffffffffffffffffffffffff161415610433576040517f08c379a000000000000000000000000000000000000000000000000000000000815260040180806020018281038252601e8152602001807f53656c662d64656c65676174696f6e20697320646973616c6c6f7765642e000081525060200191505060405180910390fd5b5b600073ffffffffffffffffffffffffffffffffffffffff16600160008473ffffffffffffffffffffffffffffffffffffffff1673ffffffffffffffffffffffffffffffffffffffff16815260200190815260200160002060010160019054906101000a900473ffffffffffffffffffffffffffffffffffffffff1673ffffffffffffffffffffffffffffffffffffffff16146105d657600160008373ffffffffffffffffffffffffffffffffffffffff1673ffffffffffffffffffffffffffffffffffffffff16815260200190815260200160002060010160019054906101000a900473ffffffffffffffffffffffffffffffffffffffff1691503373ffffffffffffffffffffffffffffffffffffffff168273ffffffffffffffffffffffffffffffffffffffff1614156105d1576040517f08c379a00000000000000000000000000000000000000000000000000000000081526004018080602001828103825260198152602001807f466f756e64206c6f6f7020696e2064656c65676174696f6e2e0000000000000081525060200191505060405180910390fd5b610434565b60018160010160006101000a81548160ff021916908315150217905550818160010160016101000a81548173ffffffffffffffffffffffffffffffffffffffff021916908373ffffffffffffffffffffffffffffffffffffffff1602179055506000600160008473ffffffffffffffffffffffffffffffffffffffff1673ffffffffffffffffffffffffffffffffffffffff16815260200190815260200160002090508060010160009054906101000a900460ff16156106c957816000015460028260020154815481106106a657fe5b9060005260206000209060020201600101600082825401925050819055506106fe565b816000015460028260020154815481106106df57fe5b9060005260206000209060020201600101600082825401925050819055505b505050565b6000806000905060005b60028054905081101561077257816002828154811061072857fe5b9060005260206000209060020201600101541115610765576002818154811061074d57fe5b90600052602060002090600202016001015491508092505b808060010191505061070d565b505090565b600080600160003373ffffffffffffffffffffffffffffffffffffffff1673ffffffffffffffffffffffffffffffffffffffff1681526020019081526020016000209050600081600001541415610836576040517f08c379a00000000000000000000000000000000000000000000000000000000081526004018080602001828103825260148152602001807f486173206e6f20726967687420746f20766f746500000000000000000000000081525060200191505060405180910390fd5b8060010160009054906101000a900460ff16156108bb576040517f08c379a000000000000000000000000000000000000000000000000000000000815260040180806020018281038252600e8152602001807f416c726561647920766f7465642e00000000000000000000000000000000000081525060200191505060405180910390fd5b60018160010160006101000a81548160ff0219169083151502179055508181600201819055508060000154600283815481106108f357fe5b9060005260206000209060020201600101600082825401925050819055505090565b60008054906101000a900473ffffffffffffffffffffffffffffffffffffffff1673ffffffffffffffffffffffffffffffffffffffff163373ffffffffffffffffffffffffffffffffffffffff16146109b9576040517f08c379a0000000000000000000000000000000000000000000000000000000008152600401808060200182810382526028815260200180610ba06028913960400191505060405180910390fd5b600160008273ffffffffffffffffffffffffffffffffffffffff1673ffffffffffffffffffffffffffffffffffffffff16815260200190815260200160002060010160009054906101000a900460ff1615610a7c576040517f08c379a00000000000000000000000000000000000000000000000000000000081526004018080602001828103825260188152602001807f54686520766f74657220616c726561647920766f7465642e000000000000000081525060200191505060405180910390fd5b6000600160008373ffffffffffffffffffffffffffffffffffffffff1673ffffffffffffffffffffffffffffffffffffffff1681526020019081526020016000206000015414610acb57600080fd5b60018060008373ffffffffffffffffffffffffffffffffffffffff1673ffffffffffffffffffffffffffffffffffffffff1681526020019081526020016000206000018190555050565b60016020528060005260406000206000915090508060000154908060010160009054906101000a900460ff16908060010160019054906101000a900473ffffffffffffffffffffffffffffffffffffffff16908060020154905084565b60006002610b7e610703565b81548110610b8857fe5b90600052602060002090600202016000015490509056fe4f6e6c79206368616972706572736f6e2063616e206769766520726967687420746f20766f74652ea26469706673582212209b43d053f6d796984cd3b5dd63b56e9b0c5a3a2fe679faabd6dffd12fe022ad764736f6c63430007040033",
  "immutableReferences": {},
  "source": "// SPDX-License-Identifier: GPL-3.0\npragma solidity >=0.7.0 <0.9.0;\ncontract Ballot {\n\tstruct Voter {uint weight;bool voted;address delegate;uint vote;}\n\tstruct Proposal {bytes32 name;uint voteCount;}\n\taddress public chairperson; \n\tmapping (address => Voter) public voters; \n\tProposal[] public proposals; \n\tconstructor (bytes32 proposalNames) {\n\t\tchairperson = msg.sender; \n\t\tvoters[chairperson].weight = 1; \n\t\tfor (uint i = 1;i < proposalNames.length; i++) {\n\t\t\tproposals.push(Proposal({name : proposalNames[i], voteCount : 0})); \n\t\t}\n\t}\n\tfunction giveRightToVote(address voter) public {\n\t\trequire(msg.sender == chairperson, \"Only chairperson can give right to vote.\"); \n\t\trequire(!voters[voter].voted, \"The voter already voted.\"); \n\t\trequire(voters[voter].weight == 0); \n\t\tvoters[voter].weight = 1; \n\t}\n\tfunction delegate(address to) public {\n\t\tVoter storage sender = voters[msg.sender];\n\t\trequire(!sender.voted, \"You already voted.\"); \n\t\trequire(to != msg.sender, \"Self-delegation is disallowed.\"); \n\t\twhile (voters[to].delegate != address(0)) {\n\t\t\tto = voters[to].delegate; \n\t\t\trequire(to != msg.sender, \"Found loop in delegation.\"); \n\t\t}\n\t\tsender.voted = true; \n\t\tsender.delegate = to; \n\t\tVoter storage delegate_ = voters[to];\n\t\tif (delegate_.voted) proposals[delegate_.vote].voteCount += sender.weight; else proposals[delegate_.vote].voteCount += sender.weight; \n\t}\n\tfunction vote() public returns (uint proposal){\n\t\tVoter storage sender = voters[msg.sender];\n\t\trequire(sender.weight != 0, \"Has no right to vote\"); \n\t\trequire(!sender.voted, \"Already voted.\"); \n\t\tsender.voted = true; \n\t\tsender.vote = proposal; \n\t\tproposals[proposal].voteCount += sender.weight; \n\t}\n\tfunction winningProposal() public view returns (uint winningProposal_){\n\t\tuint winningVoteCount = 0;\n\t\tfor (uint p = 0;p < proposals.length; p++) {\n\t\t\tif (proposals[p].voteCount > winningVoteCount) {\n\t\t\t\twinningVoteCount = proposals[p].voteCount; \n\t\t\t\twinningProposal_ = p; \n\t\t\t}\n\t\t}\n\t}\n\tfunction winnerName() public view returns (bytes32 winnerName_){\n\t\twinnerName_ = proposals[winningProposal()].name; \n\t}\n}\n",
  "sourcePath": "/mnt/c/Users/kitch/Documents/Git Projects/Haskell-Smart-Contracts/EVM Testing/truffle/contracts/Ballot.sol",
  "compiler": {
    "name": "solc",
    "version": "0.7.4+commit.3f05b770.Emscripten.clang"
  },
  "schemaVersion": "3.3.4",
  "updatedAt": "2021-03-19T12:11:16.671Z",
  "devdoc": {
    "kind": "dev",
    "methods": {},
    "version": 1
  },
  "userdoc": {
    "kind": "user",
    "methods": {},
    "version": 1
  }
}