{
  "contractName": "Lotto",
  "abi": [
    {
      "inputs": [
        {
          "internalType": "address payable",
          "name": "_winner",
          "type": "address"
        },
        {
          "internalType": "uint256",
          "name": "_numberOfPlayers",
          "type": "uint256"
        },
        {
          "internalType": "uint256",
          "name": "playersSize",
          "type": "uint256"
        },
        {
          "internalType": "uint256",
          "name": "_ticketPrice",
          "type": "uint256"
        }
      ],
      "stateMutability": "nonpayable",
      "type": "constructor"
    },
    {
      "inputs": [],
      "name": "contractBalance",
      "outputs": [
        {
          "internalType": "uint256",
          "name": "",
          "type": "uint256"
        }
      ],
      "stateMutability": "view",
      "type": "function"
    },
    {
      "inputs": [],
      "name": "numberOfPlayers",
      "outputs": [
        {
          "internalType": "uint256",
          "name": "",
          "type": "uint256"
        }
      ],
      "stateMutability": "view",
      "type": "function"
    },
    {
      "inputs": [],
      "name": "owner",
      "outputs": [
        {
          "internalType": "address payable",
          "name": "",
          "type": "address"
        }
      ],
      "stateMutability": "view",
      "type": "function"
    },
    {
      "inputs": [
        {
          "internalType": "uint256",
          "name": "",
          "type": "uint256"
        }
      ],
      "name": "players",
      "outputs": [
        {
          "internalType": "address payable",
          "name": "",
          "type": "address"
        }
      ],
      "stateMutability": "view",
      "type": "function"
    },
    {
      "inputs": [],
      "name": "ticketPrice",
      "outputs": [
        {
          "internalType": "uint256",
          "name": "",
          "type": "uint256"
        }
      ],
      "stateMutability": "view",
      "type": "function"
    },
    {
      "inputs": [],
      "name": "winner",
      "outputs": [
        {
          "internalType": "address payable",
          "name": "",
          "type": "address"
        }
      ],
      "stateMutability": "view",
      "type": "function"
    },
    {
      "inputs": [
        {
          "internalType": "uint256",
          "name": "amount",
          "type": "uint256"
        }
      ],
      "name": "buyTicket",
      "outputs": [],
      "stateMutability": "payable",
      "type": "function"
    },
    {
      "inputs": [],
      "name": "pickWinner",
      "outputs": [],
      "stateMutability": "nonpayable",
      "type": "function"
    },
    {
      "inputs": [],
      "name": "withdraw",
      "outputs": [],
      "stateMutability": "nonpayable",
      "type": "function"
    },
    {
      "inputs": [],
      "name": "checkWinner",
      "outputs": [
        {
          "internalType": "address payable",
          "name": "",
          "type": "address"
        }
      ],
      "stateMutability": "view",
      "type": "function"
    }
  ],
  "bytecode": "0x608060405234801561001057600080fd5b506040516108013803806108018339818101604052608081101561003357600080fd5b8101908080519060200190929190805190602001909291908051906020019092919080519060200190929190505050836000806101000a81548173ffffffffffffffffffffffffffffffffffffffff021916908373ffffffffffffffffffffffffffffffffffffffff160217905550826001819055508167ffffffffffffffff811180156100c057600080fd5b506040519080825280602002602001820160405280156100ef5781602001602082028036833780820191505090505b506002908051906020019061010592919061015f565b5080600381905550600060048190555033600560006101000a81548173ffffffffffffffffffffffffffffffffffffffff021916908373ffffffffffffffffffffffffffffffffffffffff16021790555050505050610206565b8280548282559060005260206000209081019282156101d8579160200282015b828111156101d75782518260006101000a81548173ffffffffffffffffffffffffffffffffffffffff021916908373ffffffffffffffffffffffffffffffffffffffff1602179055509160200191906001019061017f565b5b5090506101e591906101e9565b5090565b5b808211156102025760008160009055506001016101ea565b5090565b6105ec806102156000396000f3fe6080604052600436106100915760003560e01c80638b7afe2e116100595780638b7afe2e146101485780638da5cb5b14610173578063ad38867e146101b4578063dfbf53ae146101f5578063f71d96cb1461023657610091565b80631209b1f6146100965780633ccfd60b146100c15780635d495aea146100d857806367dd74ca146100ef5780636f4bda171461011d575b600080fd5b3480156100a257600080fd5b506100ab61029b565b6040518082815260200191505060405180910390f35b3480156100cd57600080fd5b506100d66102a1565b005b3480156100e457600080fd5b506100ed61034c565b005b61011b6004803603602081101561010557600080fd5b810190808035906020019092919050505061046b565b005b34801561012957600080fd5b506101326104f8565b6040518082815260200191505060405180910390f35b34801561015457600080fd5b5061015d6104fe565b6040518082815260200191505060405180910390f35b34801561017f57600080fd5b50610188610504565b604051808273ffffffffffffffffffffffffffffffffffffffff16815260200191505060405180910390f35b3480156101c057600080fd5b506101c961052a565b604051808273ffffffffffffffffffffffffffffffffffffffff16815260200191505060405180910390f35b34801561020157600080fd5b5061020a610553565b604051808273ffffffffffffffffffffffffffffffffffffffff16815260200191505060405180910390f35b34801561024257600080fd5b5061026f6004803603602081101561025957600080fd5b8101908080359060200190929190505050610577565b604051808273ffffffffffffffffffffffffffffffffffffffff16815260200191505060405180910390f35b60035481565b3373ffffffffffffffffffffffffffffffffffffffff1660008054906101000a900473ffffffffffffffffffffffffffffffffffffffff1673ffffffffffffffffffffffffffffffffffffffff16146102f957600080fd5b3373ffffffffffffffffffffffffffffffffffffffff166108fc6004549081150290604051600060405180830381858888f19350505050158015610341573d6000803e3d6000fd5b506000600481905550565b6000600154141561035c57600080fd5b3373ffffffffffffffffffffffffffffffffffffffff16600560009054906101000a900473ffffffffffffffffffffffffffffffffffffffff1673ffffffffffffffffffffffffffffffffffffffff16146103b657600080fd5b6002600154424460405160200180838152602001828152602001925050506040516020818303038152906040528051906020012060001c816103f457fe5b06815481106103ff57fe5b9060005260206000200160009054906101000a900473ffffffffffffffffffffffffffffffffffffffff166000806101000a81548173ffffffffffffffffffffffffffffffffffffffff021916908373ffffffffffffffffffffffffffffffffffffffff160217905550565b6003543414156104f55780341461048157600080fd5b34600460008282540192505081905550336002600154815481106104a157fe5b9060005260206000200160006101000a81548173ffffffffffffffffffffffffffffffffffffffff021916908373ffffffffffffffffffffffffffffffffffffffff16021790555060018054016001819055505b50565b60015481565b60045481565b600560009054906101000a900473ffffffffffffffffffffffffffffffffffffffff1681565b60008060009054906101000a900473ffffffffffffffffffffffffffffffffffffffff16905090565b60008054906101000a900473ffffffffffffffffffffffffffffffffffffffff1681565b6002818154811061058757600080fd5b906000526020600020016000915054906101000a900473ffffffffffffffffffffffffffffffffffffffff168156fea2646970667358221220e7e2e5a8d8d98470e8815ac3bef3e87b542ea89394303baa71b0d8432cb9649264736f6c63430007040033",
  "immutableReferences": {},
  "source": "// SPDX-License-Identifier: GPL-3.0\npragma solidity ^0.7.4;\ncontract Lotto {\n\tconstructor (address payable _winner, uint _numberOfPlayers, uint playersSize, uint _ticketPrice) {\n\t\twinner = _winner; \n\t\tnumberOfPlayers = _numberOfPlayers; \n\t\tplayers = new address payable[](playersSize); \n\t\tticketPrice = _ticketPrice; \n\t\tcontractBalance = 0; \n\t\towner = msg.sender; \n\t}\n\taddress payable public winner; \n\tuint public numberOfPlayers; \n\taddress payable[] public players; \n\tuint public ticketPrice; \n\tuint public contractBalance; \n\taddress payable public owner; \n\tfunction buyTicket(uint amount) payable public {\n\t\tif (msg.value == ticketPrice) {\n\t\t\trequire(msg.value == amount); \n\t\t\tcontractBalance += msg.value; \n\t\t\tplayers[numberOfPlayers] = msg.sender; \n\t\t\tnumberOfPlayers = numberOfPlayers + 1; \n\t\t}\n\t}\n\tfunction pickWinner() public {\n\t\trequire(numberOfPlayers != 0); \n\t\trequire(owner == msg.sender); \n\t\twinner = players[uint(uint256(keccak256(abi.encodePacked(block.timestamp, block.difficulty)))%numberOfPlayers)]; \n\t}\n\tfunction withdraw() public {\n\t\trequire(winner == msg.sender); \n\t\tpayable(msg.sender).transfer(contractBalance); \n\t\tcontractBalance = 0; \n\t}\n\tfunction checkWinner() public view returns (address payable){\n\t\treturn winner;\n\t}\n}\n",
  "sourcePath": "/mnt/c/Users/kitch/Documents/Git Projects/Haskell-Smart-Contracts/EVM Testing/truffle/contracts/Lotto.sol",
  "compiler": {
    "name": "solc",
    "version": "0.7.4+commit.3f05b770.Emscripten.clang"
  },
  "schemaVersion": "3.3.4",
  "updatedAt": "2021-04-08T10:37:56.973Z",
  "devdoc": {
    "kind": "dev",
    "methods": {},
    "version": 1
  },
  "userdoc": {
    "kind": "user",
    "methods": {},
    "version": 1
  }
}