{
  "contractName": "RichestGame",
  "abi": [
    {
      "inputs": [
        {
          "internalType": "address payable",
          "name": "_richest",
          "type": "address"
        },
        {
          "internalType": "uint256",
          "name": "_start",
          "type": "uint256"
        },
        {
          "internalType": "uint256",
          "name": "hoursAfter",
          "type": "uint256"
        },
        {
          "internalType": "uint256",
          "name": "_highestAmount",
          "type": "uint256"
        }
      ],
      "stateMutability": "nonpayable",
      "type": "constructor"
    },
    {
      "inputs": [],
      "name": "contractBalance",
      "outputs": [
        {
          "internalType": "uint256",
          "name": "",
          "type": "uint256"
        }
      ],
      "stateMutability": "view",
      "type": "function"
    },
    {
      "inputs": [],
      "name": "end",
      "outputs": [
        {
          "internalType": "uint256",
          "name": "",
          "type": "uint256"
        }
      ],
      "stateMutability": "view",
      "type": "function"
    },
    {
      "inputs": [],
      "name": "highestAmount",
      "outputs": [
        {
          "internalType": "uint256",
          "name": "",
          "type": "uint256"
        }
      ],
      "stateMutability": "view",
      "type": "function"
    },
    {
      "inputs": [],
      "name": "richest",
      "outputs": [
        {
          "internalType": "address payable",
          "name": "",
          "type": "address"
        }
      ],
      "stateMutability": "view",
      "type": "function"
    },
    {
      "inputs": [],
      "name": "start",
      "outputs": [
        {
          "internalType": "uint256",
          "name": "",
          "type": "uint256"
        }
      ],
      "stateMutability": "view",
      "type": "function"
    },
    {
      "inputs": [],
      "name": "attemptToBecomeRichest",
      "outputs": [],
      "stateMutability": "payable",
      "type": "function"
    },
    {
      "inputs": [],
      "name": "withdraw",
      "outputs": [],
      "stateMutability": "nonpayable",
      "type": "function"
    },
    {
      "inputs": [],
      "name": "checkRichest",
      "outputs": [
        {
          "internalType": "address payable",
          "name": "",
          "type": "address"
        }
      ],
      "stateMutability": "view",
      "type": "function"
    }
  ],
  "bytecode": "0x608060405234801561001057600080fd5b5060405161047e38038061047e8339818101604052608081101561003357600080fd5b8101908080519060200190929190805190602001909291908051906020019092919080519060200190929190505050836000806101000a81548173ffffffffffffffffffffffffffffffffffffffff021916908373ffffffffffffffffffffffffffffffffffffffff160217905550600060018190555082600281905550610e1082026002540160038190555080600481905550505050506103a4806100da6000396000f3fe60806040526004361061007b5760003560e01c80633ccfd60b1161004e5780633ccfd60b146101375780638b7afe2e1461014e578063be9a655514610179578063efbe1c1c146101a45761007b565b806302e26c3814610080578063068f69d6146100c15780633b1d3d70146101025780633bd301ec1461010c575b600080fd5b34801561008c57600080fd5b506100956101cf565b604051808273ffffffffffffffffffffffffffffffffffffffff16815260200191505060405180910390f35b3480156100cd57600080fd5b506100d66101f3565b604051808273ffffffffffffffffffffffffffffffffffffffff16815260200191505060405180910390f35b61010a61021c565b005b34801561011857600080fd5b5061012161029d565b6040518082815260200191505060405180910390f35b34801561014357600080fd5b5061014c6102a3565b005b34801561015a57600080fd5b5061016361035c565b6040518082815260200191505060405180910390f35b34801561018557600080fd5b5061018e610362565b6040518082815260200191505060405180910390f35b3480156101b057600080fd5b506101b9610368565b6040518082815260200191505060405180910390f35b60008054906101000a900473ffffffffffffffffffffffffffffffffffffffff1681565b60008060009054906101000a900473ffffffffffffffffffffffffffffffffffffffff16905090565b600254421015801561023057506003544211155b61023957600080fd5b3460016000828254019250508190555060045434111561029b57336000806101000a81548173ffffffffffffffffffffffffffffffffffffffff021916908373ffffffffffffffffffffffffffffffffffffffff160217905550346004819055505b565b60045481565b60035442116102b157600080fd5b3373ffffffffffffffffffffffffffffffffffffffff1660008054906101000a900473ffffffffffffffffffffffffffffffffffffffff1673ffffffffffffffffffffffffffffffffffffffff161461030957600080fd5b3373ffffffffffffffffffffffffffffffffffffffff166108fc6001549081150290604051600060405180830381858888f19350505050158015610351573d6000803e3d6000fd5b506000600181905550565b60015481565b60025481565b6003548156fea2646970667358221220f3284ea5f0a311ec181a78de3143653acdc79bc5fd7caed3db7b1475f40bff0664736f6c63430007040033",
  "immutableReferences": {},
  "source": "// SPDX-License-Identifier: GPL-3.0\npragma solidity ^0.7.4;\ncontract RichestGame {\n\tconstructor (address payable _richest, uint _start, uint hoursAfter, uint _highestAmount) {\n\t\trichest = _richest; \n\t\tcontractBalance = 0; \n\t\tstart = _start; \n\t\tend = start + hoursAfter * 1 hours; \n\t\thighestAmount = _highestAmount; \n\t}\n\taddress payable public richest; \n\tuint public contractBalance; \n\tuint public start; \n\tuint public end; \n\tuint public highestAmount; \n\tfunction attemptToBecomeRichest() payable public {\n\t\trequire(block.timestamp >= start && block.timestamp <= end); \n\t\tcontractBalance += msg.value; \n\t\tif (msg.value > highestAmount) {\n\t\t\trichest = msg.sender; \n\t\t\thighestAmount = msg.value; \n\t\t}\n\t}\n\tfunction withdraw() public {\n\t\trequire(block.timestamp > end); \n\t\trequire(richest == msg.sender); \n\t\tpayable(msg.sender).transfer(contractBalance); \n\t\tcontractBalance = 0; \n\t}\n\tfunction checkRichest() public view returns (address payable){\n\t\treturn richest;\n\t}\n}\n",
  "sourcePath": "/mnt/c/Users/kitch/Documents/Git Projects/Haskell-Smart-Contracts/EVM Testing/truffle/contracts/RichestGame.sol",
  "compiler": {
    "name": "solc",
    "version": "0.7.4+commit.3f05b770.Emscripten.clang"
  },
  "schemaVersion": "3.3.4",
  "updatedAt": "2021-03-19T12:11:16.722Z",
  "devdoc": {
    "kind": "dev",
    "methods": {},
    "version": 1
  },
  "userdoc": {
    "kind": "user",
    "methods": {},
    "version": 1
  }
}