{
  "contractName": "RichestGame",
  "abi": [
    {
      "inputs": [
        {
          "internalType": "address payable",
          "name": "_richest",
          "type": "address"
        },
        {
          "internalType": "uint256",
          "name": "_start",
          "type": "uint256"
        },
        {
          "internalType": "uint256",
          "name": "_end",
          "type": "uint256"
        },
        {
          "internalType": "uint256",
          "name": "_highestAmount",
          "type": "uint256"
        }
      ],
      "stateMutability": "nonpayable",
      "type": "constructor"
    },
    {
      "inputs": [],
      "name": "contractBalance",
      "outputs": [
        {
          "internalType": "uint256",
          "name": "",
          "type": "uint256"
        }
      ],
      "stateMutability": "view",
      "type": "function"
    },
    {
      "inputs": [],
      "name": "end",
      "outputs": [
        {
          "internalType": "uint256",
          "name": "",
          "type": "uint256"
        }
      ],
      "stateMutability": "view",
      "type": "function"
    },
    {
      "inputs": [],
      "name": "highestAmount",
      "outputs": [
        {
          "internalType": "uint256",
          "name": "",
          "type": "uint256"
        }
      ],
      "stateMutability": "view",
      "type": "function"
    },
    {
      "inputs": [],
      "name": "richest",
      "outputs": [
        {
          "internalType": "address payable",
          "name": "",
          "type": "address"
        }
      ],
      "stateMutability": "view",
      "type": "function"
    },
    {
      "inputs": [],
      "name": "start",
      "outputs": [
        {
          "internalType": "uint256",
          "name": "",
          "type": "uint256"
        }
      ],
      "stateMutability": "view",
      "type": "function"
    },
    {
      "inputs": [],
      "name": "attemptToBecomeRichest",
      "outputs": [],
      "stateMutability": "payable",
      "type": "function"
    },
    {
      "inputs": [],
      "name": "withdraw",
      "outputs": [],
      "stateMutability": "nonpayable",
      "type": "function"
    }
  ],
  "bytecode": "0x608060405234801561001057600080fd5b506040516104013803806104018339818101604052608081101561003357600080fd5b8101908080519060200190929190805190602001909291908051906020019092919080519060200190929190505050836000806101000a81548173ffffffffffffffffffffffffffffffffffffffff021916908373ffffffffffffffffffffffffffffffffffffffff16021790555060006001819055508260028190555081600381905550806004819055505050505061032f806100d26000396000f3fe6080604052600436106100705760003560e01c80633ccfd60b1161004e5780633ccfd60b146100eb5780638b7afe2e14610102578063be9a65551461012d578063efbe1c1c1461015857610070565b806302e26c38146100755780633b1d3d70146100b65780633bd301ec146100c0575b600080fd5b34801561008157600080fd5b5061008a610183565b604051808273ffffffffffffffffffffffffffffffffffffffff16815260200191505060405180910390f35b6100be6101a7565b005b3480156100cc57600080fd5b506100d5610228565b6040518082815260200191505060405180910390f35b3480156100f757600080fd5b5061010061022e565b005b34801561010e57600080fd5b506101176102e7565b6040518082815260200191505060405180910390f35b34801561013957600080fd5b506101426102ed565b6040518082815260200191505060405180910390f35b34801561016457600080fd5b5061016d6102f3565b6040518082815260200191505060405180910390f35b60008054906101000a900473ffffffffffffffffffffffffffffffffffffffff1681565b60025442101580156101bb57506003544211155b6101c457600080fd5b3460016000828254019250508190555060045434111561022657336000806101000a81548173ffffffffffffffffffffffffffffffffffffffff021916908373ffffffffffffffffffffffffffffffffffffffff160217905550346004819055505b565b60045481565b600354421161023c57600080fd5b3373ffffffffffffffffffffffffffffffffffffffff1660008054906101000a900473ffffffffffffffffffffffffffffffffffffffff1673ffffffffffffffffffffffffffffffffffffffff161461029457600080fd5b3373ffffffffffffffffffffffffffffffffffffffff166108fc6001549081150290604051600060405180830381858888f193505050501580156102dc573d6000803e3d6000fd5b506000600181905550565b60015481565b60025481565b6003548156fea2646970667358221220ab01a13ee87ecd4f0ec5c04717fd622a4be921544c650bb7f781d76fd7525ba664736f6c63430007040033",
  "immutableReferences": {},
  "source": "// SPDX-License-Identifier: GPL-3.0\npragma solidity ^0.7.4;\ncontract RichestGame {\n\tconstructor (address payable _richest, uint _start, uint _end, uint _highestAmount) {\n\t\trichest = _richest; \n\t\tcontractBalance = 0; \n\t\tstart = _start; \n\t\tend = _end; \n\t\thighestAmount = _highestAmount; \n\t}\n\taddress payable public richest; \n\tuint public contractBalance; \n\tuint public start; \n\tuint public end; \n\tuint public highestAmount; \n\tfunction attemptToBecomeRichest() payable public {\n\t\trequire(block.timestamp >= start && block.timestamp <= end); \n\t\tcontractBalance += msg.value; \n\t\tif (msg.value > highestAmount) {\n\t\t\trichest = msg.sender; \n\t\t\thighestAmount = msg.value; \n\t\t}\n\t}\n\tfunction withdraw() public {\n\t\trequire(block.timestamp > end); \n\t\trequire(richest == msg.sender); \n\t\tpayable(msg.sender).transfer(contractBalance); \n\t\tcontractBalance = 0; \n\t}\n}\n",
  "sourcePath": "/mnt/c/Users/kitch/Documents/Git Projects/Haskell-Smart-Contracts/EVM Testing/truffle/contracts/RichestGame.sol",
  "compiler": {
    "name": "solc",
    "version": "0.7.4+commit.3f05b770.Emscripten.clang"
  },
  "schemaVersion": "3.3.4",
  "updatedAt": "2021-03-11T17:04:35.019Z",
  "devdoc": {
    "kind": "dev",
    "methods": {},
    "version": 1
  },
  "userdoc": {
    "kind": "user",
    "methods": {},
    "version": 1
  }
}