{
  "contractName": "ShareHolders",
  "abi": [
    {
      "inputs": [
        {
          "internalType": "uint256",
          "name": "_totalShares",
          "type": "uint256"
        }
      ],
      "stateMutability": "nonpayable",
      "type": "constructor"
    },
    {
      "inputs": [],
      "name": "contractBalance",
      "outputs": [
        {
          "internalType": "uint256",
          "name": "",
          "type": "uint256"
        }
      ],
      "stateMutability": "view",
      "type": "function"
    },
    {
      "inputs": [],
      "name": "owner",
      "outputs": [
        {
          "internalType": "address payable",
          "name": "",
          "type": "address"
        }
      ],
      "stateMutability": "view",
      "type": "function"
    },
    {
      "inputs": [],
      "name": "totalShares",
      "outputs": [
        {
          "internalType": "uint256",
          "name": "",
          "type": "uint256"
        }
      ],
      "stateMutability": "view",
      "type": "function"
    },
    {
      "inputs": [],
      "name": "withdraw",
      "outputs": [],
      "stateMutability": "nonpayable",
      "type": "function"
    },
    {
      "inputs": [
        {
          "internalType": "address payable",
          "name": "_to",
          "type": "address"
        },
        {
          "internalType": "uint256",
          "name": "amount",
          "type": "uint256"
        }
      ],
      "name": "payDividends",
      "outputs": [],
      "stateMutability": "payable",
      "type": "function"
    },
    {
      "inputs": [],
      "name": "depositToContract",
      "outputs": [],
      "stateMutability": "payable",
      "type": "function"
    },
    {
      "inputs": [
        {
          "internalType": "address payable",
          "name": "shareHolder",
          "type": "address"
        },
        {
          "internalType": "uint256",
          "name": "sharesOwned",
          "type": "uint256"
        }
      ],
      "name": "setShares",
      "outputs": [],
      "stateMutability": "nonpayable",
      "type": "function"
    },
    {
      "inputs": [],
      "name": "getBalance",
      "outputs": [
        {
          "internalType": "uint256",
          "name": "",
          "type": "uint256"
        }
      ],
      "stateMutability": "view",
      "type": "function"
    }
  ],
  "bytecode": "0x608060405234801561001057600080fd5b5060405161065e38038061065e8339818101604052602081101561003357600080fd5b81019080805190602001909291905050506000808190555033600160006101000a81548173ffffffffffffffffffffffffffffffffffffffff021916908373ffffffffffffffffffffffffffffffffffffffff16021790555080600281905550506105bb806100a36000396000f3fe60806040526004361061007b5760003560e01c80638bccbf621161004e5780638bccbf62146101185780638da5cb5b14610173578063c8f781c2146101b4578063d9afa38b146101be5761007b565b806312065fe0146100805780633a98ef39146100ab5780633ccfd60b146100d65780638b7afe2e146100ed575b600080fd5b34801561008c57600080fd5b5061009561020c565b6040518082815260200191505060405180910390f35b3480156100b757600080fd5b506100c0610253565b6040518082815260200191505060405180910390f35b3480156100e257600080fd5b506100eb610259565b005b3480156100f957600080fd5b50610102610334565b6040518082815260200191505060405180910390f35b34801561012457600080fd5b506101716004803603604081101561013b57600080fd5b81019080803573ffffffffffffffffffffffffffffffffffffffff1690602001909291908035906020019092919050505061033a565b005b34801561017f57600080fd5b506101886103dc565b604051808273ffffffffffffffffffffffffffffffffffffffff16815260200191505060405180910390f35b6101bc610402565b005b61020a600480360360408110156101d457600080fd5b81019080803573ffffffffffffffffffffffffffffffffffffffff1690602001909291908035906020019092919050505061046d565b005b6000600460003373ffffffffffffffffffffffffffffffffffffffff1673ffffffffffffffffffffffffffffffffffffffff16815260200190815260200160002054905090565b60025481565b6000600460003373ffffffffffffffffffffffffffffffffffffffff1673ffffffffffffffffffffffffffffffffffffffff16815260200190815260200160002054905080600460003373ffffffffffffffffffffffffffffffffffffffff1673ffffffffffffffffffffffffffffffffffffffff168152602001908152602001600020600082825403925050819055503373ffffffffffffffffffffffffffffffffffffffff166108fc829081150290604051600060405180830381858888f19350505050158015610330573d6000803e3d6000fd5b5050565b60005481565b3373ffffffffffffffffffffffffffffffffffffffff16600160009054906101000a900473ffffffffffffffffffffffffffffffffffffffff1673ffffffffffffffffffffffffffffffffffffffff161461039457600080fd5b80600360008473ffffffffffffffffffffffffffffffffffffffff1673ffffffffffffffffffffffffffffffffffffffff168152602001908152602001600020819055505050565b600160009054906101000a900473ffffffffffffffffffffffffffffffffffffffff1681565b3373ffffffffffffffffffffffffffffffffffffffff16600160009054906101000a900473ffffffffffffffffffffffffffffffffffffffff1673ffffffffffffffffffffffffffffffffffffffff161461045c57600080fd5b346000808282540192505081905550565b3373ffffffffffffffffffffffffffffffffffffffff16600160009054906101000a900473ffffffffffffffffffffffffffffffffffffffff1673ffffffffffffffffffffffffffffffffffffffff16146104c757600080fd5b600254600360008473ffffffffffffffffffffffffffffffffffffffff1673ffffffffffffffffffffffffffffffffffffffff1681526020019081526020016000205482028161051357fe5b04905080600054101561052557600080fd5b80600080828254039250508190555080600460008473ffffffffffffffffffffffffffffffffffffffff1673ffffffffffffffffffffffffffffffffffffffff16815260200190815260200160002060008282540192505081905550505056fea264697066735822122014d30d9c8158d04b40c93fa284a1326785b6ab8e1853cda61186b9b65340fba964736f6c63430007040033",
  "immutableReferences": {},
  "source": "// SPDX-License-Identifier: GPL-3.0\npragma solidity ^0.7.4;\ncontract ShareHolders {\n\tconstructor (uint _totalShares) {\n\t\tcontractBalance = 0; \n\t\towner = msg.sender; \n\t\ttotalShares = _totalShares; \n\t}\n\tuint public contractBalance; \n\taddress payable public owner; \n\tuint public totalShares; \n\tmapping (address => uint) shares; \n\tmapping (address => uint) balance; \n\tfunction withdraw() public {\n\t\tuint amount = balance[msg.sender];\n\t\tbalance[msg.sender] -= amount; \n\t\tpayable(msg.sender).transfer(amount); \n\t}\n\tfunction payDividends(address payable _to, uint amount) public payable {\n\t\trequire(owner == msg.sender); \n\t\tamount = amount * shares[_to] / totalShares; \n\t\trequire(contractBalance >= amount); \n\t\tcontractBalance -= amount; \n\t\tbalance[_to] += amount; \n\t}\n\tfunction depositToContract() public payable {\n\t\trequire(owner == msg.sender); \n\t\tcontractBalance += msg.value; \n\t}\n\tfunction setShares(address payable shareHolder, uint sharesOwned) public {\n\t\trequire(owner == msg.sender); \n\t\tshares[shareHolder] = sharesOwned; \n\t}\n\tfunction getBalance() public view returns (uint){\n\t\treturn balance[msg.sender];\n\t}\n}\n",
  "sourcePath": "/mnt/c/Users/kitch/Documents/Git Projects/Haskell-Smart-Contracts/EVM Testing/truffle/contracts/ShareHolders.sol",
  "compiler": {
    "name": "solc",
    "version": "0.7.4+commit.3f05b770.Emscripten.clang"
  },
  "schemaVersion": "3.3.4",
  "updatedAt": "2021-03-19T12:11:16.726Z",
  "devdoc": {
    "kind": "dev",
    "methods": {},
    "version": 1
  },
  "userdoc": {
    "kind": "user",
    "methods": {},
    "version": 1
  }
}