{
  "contractName": "ShareHolders",
  "abi": [
    {
      "inputs": [
        {
          "internalType": "uint256",
          "name": "_totalShares",
          "type": "uint256"
        }
      ],
      "stateMutability": "nonpayable",
      "type": "constructor"
    },
    {
      "inputs": [],
      "name": "contractBalance",
      "outputs": [
        {
          "internalType": "uint256",
          "name": "",
          "type": "uint256"
        }
      ],
      "stateMutability": "view",
      "type": "function"
    },
    {
      "inputs": [],
      "name": "owner",
      "outputs": [
        {
          "internalType": "address payable",
          "name": "",
          "type": "address"
        }
      ],
      "stateMutability": "view",
      "type": "function"
    },
    {
      "inputs": [],
      "name": "totalShares",
      "outputs": [
        {
          "internalType": "uint256",
          "name": "",
          "type": "uint256"
        }
      ],
      "stateMutability": "view",
      "type": "function"
    },
    {
      "inputs": [],
      "name": "withdraw",
      "outputs": [],
      "stateMutability": "nonpayable",
      "type": "function"
    },
    {
      "inputs": [
        {
          "internalType": "address payable",
          "name": "_to",
          "type": "address"
        },
        {
          "internalType": "uint256",
          "name": "amount",
          "type": "uint256"
        }
      ],
      "name": "payDividends",
      "outputs": [],
      "stateMutability": "payable",
      "type": "function"
    },
    {
      "inputs": [],
      "name": "depositToContract",
      "outputs": [],
      "stateMutability": "payable",
      "type": "function"
    }
  ],
  "bytecode": "0x608060405234801561001057600080fd5b506040516104d03803806104d08339818101604052602081101561003357600080fd5b81019080805190602001909291905050506000808190555033600160006101000a81548173ffffffffffffffffffffffffffffffffffffffff021916908373ffffffffffffffffffffffffffffffffffffffff160217905550806002819055505061042d806100a36000396000f3fe6080604052600436106100555760003560e01c80633a98ef391461005a5780633ccfd60b146100855780638b7afe2e1461009c5780638da5cb5b146100c7578063c8f781c214610108578063d9afa38b14610112575b600080fd5b34801561006657600080fd5b5061006f610160565b6040518082815260200191505060405180910390f35b34801561009157600080fd5b5061009a610166565b005b3480156100a857600080fd5b506100b1610241565b6040518082815260200191505060405180910390f35b3480156100d357600080fd5b506100dc610247565b604051808273ffffffffffffffffffffffffffffffffffffffff16815260200191505060405180910390f35b61011061026d565b005b61015e6004803603604081101561012857600080fd5b81019080803573ffffffffffffffffffffffffffffffffffffffff169060200190929190803590602001909291905050506102d8565b005b60025481565b6000600460003373ffffffffffffffffffffffffffffffffffffffff1673ffffffffffffffffffffffffffffffffffffffff16815260200190815260200160002054905080600460003373ffffffffffffffffffffffffffffffffffffffff1673ffffffffffffffffffffffffffffffffffffffff168152602001908152602001600020600082825403925050819055503373ffffffffffffffffffffffffffffffffffffffff166108fc829081150290604051600060405180830381858888f1935050505015801561023d573d6000803e3d6000fd5b5050565b60005481565b600160009054906101000a900473ffffffffffffffffffffffffffffffffffffffff1681565b3373ffffffffffffffffffffffffffffffffffffffff16600160009054906101000a900473ffffffffffffffffffffffffffffffffffffffff1673ffffffffffffffffffffffffffffffffffffffff16146102c757600080fd5b346000808282540192505081905550565b3373ffffffffffffffffffffffffffffffffffffffff16600160009054906101000a900473ffffffffffffffffffffffffffffffffffffffff1673ffffffffffffffffffffffffffffffffffffffff161461033257600080fd5b600254600360008473ffffffffffffffffffffffffffffffffffffffff1673ffffffffffffffffffffffffffffffffffffffff168152602001908152602001600020548161037c57fe5b04818161038557fe5b04905080600054101561039757600080fd5b80600080828254039250508190555080600460008473ffffffffffffffffffffffffffffffffffffffff1673ffffffffffffffffffffffffffffffffffffffff16815260200190815260200160002060008282540192505081905550505056fea26469706673582212208cf4afce1820554dbd5cf9b5ac2cc8dbb05cbf6e972eaa3b2d21e075e36a524b64736f6c63430007040033",
  "immutableReferences": {},
  "source": "// SPDX-License-Identifier: GPL-3.0\npragma solidity ^0.7.4;\ncontract ShareHolders {\n\tconstructor (uint _totalShares) {\n\t\tcontractBalance = 0; \n\t\towner = msg.sender; \n\t\ttotalShares = _totalShares; \n\t}\n\tuint public contractBalance; \n\taddress payable public owner; \n\tuint public totalShares; \n\tmapping (address => uint) shares; \n\tmapping (address => uint) balance; \n\tfunction withdraw() public {\n\t\tuint amount = balance[msg.sender];\n\t\tbalance[msg.sender] -= amount; \n\t\tpayable(msg.sender).transfer(amount); \n\t}\n\tfunction payDividends(address payable _to, uint amount) public payable {\n\t\trequire(owner == msg.sender); \n\t\tamount /= shares[_to] / totalShares; \n\t\trequire(contractBalance >= amount); \n\t\tcontractBalance -= amount; \n\t\tbalance[_to] += amount; \n\t}\n\tfunction depositToContract() public payable {\n\t\trequire(owner == msg.sender); \n\t\tcontractBalance += msg.value; \n\t}\n}\n",
  "sourcePath": "/mnt/c/Users/kitch/Documents/Git Projects/Haskell-Smart-Contracts/EVM Testing/truffle/contracts/ShareHolders.sol",
  "compiler": {
    "name": "solc",
    "version": "0.7.4+commit.3f05b770.Emscripten.clang"
  },
  "schemaVersion": "3.3.4",
  "updatedAt": "2021-03-08T13:37:45.728Z",
  "devdoc": {
    "kind": "dev",
    "methods": {},
    "version": 1
  },
  "userdoc": {
    "kind": "user",
    "methods": {},
    "version": 1
  }
}